:100000000C9434000C9446000C9446000C9446006A
:100010000C9446000C9446000C9446000C94460048
:100020000C9446000C9446000C9446000C94460038
:100030000C9446000C9446000C9446000C94460028
:100040000C9446000C9446000C9446000C94460018
:100050000C9446000C9446000C9446000C94460008
:100060000C9446000C94460011241FBECFEFD8E03C
:10007000DEBFCDBF21E0A0E0B1E001C01D92A23003
:10008000B207E1F70E946C000C9473000C9400001E
:1000900083B182958F7091E08927817090E00895F7
:1000A0008091000190910101892B69F495B182E062
:1000B000892785B982E185B981E090E090930101BB
:1000C0008093000106C082E185B91092010110926F
:1000D000000180E090E0089582E084B980E185B974
:0A00E0000E945000FDCFF894FFCFFE
:00000001FF
